S0190000534D4B323020544553542053414D4432312E73726563B6
S1130000502100204913000045130000451300004F
S113001000000000000000000000000000000000DC
S11300200000000000000000000000004513000074
S1130030000000000000000045130000451300000C
S1130040451300004513000045130000451300004C
S1130050451300004513000045130000451300003C
S1130060451300000D0500001D0500002D050000CE
S11300703D0500004D0500005D050000451300002E
S1130080451300004513000045130000451300000C
S113009045130000451300004513000045130000FC
S11300A045130000451300004513000045130000EC
S11300B010B5064C2378002B07D1054B002B02D03A
S11300C0044800E000BF0123237010BD1C00002081
S11300D0000000007416000008B5084B002B03D084
S11300E00748084900E000BF07480368002B03D015
S11300F0064B002B00D0984708BDC0460000000006
S11301007416000020000020741600000000000097
S1130110002807DB0923C10FDA17834251414B4200
S1130120184000E009207047F0B5474680B4041C2D
S11301300E1C151E03DD0A21334B98473170012D27
S11301400DDD324F201C0A21B8478046201C642153
S1130150B847820083185B004246D31A7370022D9D
S11301600EDD2A4F201C6421B8478046201CFA214A
S11301708900B847820083185B004246D31AB370E3
S1130180032D0EDD214F201CFA218900B84780463B
S1130190201C1F49B847820083185B004246D31ACB
S11301A0F370042D0DDD194F201C1949B847804602
S11301B0201C1849B847820083185B004246D31AB2
S11301C03371052D0DDD114F201C1249B8478046AF
S11301D0201C1149B847820083185B004246D31A99
S11301E07371062D0CDD094D201C0B49A847071C13
S11301F0201C0A49A847820083185B00FF1AB771C4
S113020004BC9046F0BDC046CD1500004515000065
S113021010270000A086010040420F00809698003D
S1130220F8B54F464646C0B400AF0D1C141C9946A1
S11302302022D25D9046E31DDB08DB006A46D21A19
S113024095466E4662B26946254B984748464146F4
S1130250244B9847062C02D9B079234B9847062D96
S113026002D12E20214B9847052C02D970791E4BC0
S11302709847052D02D12E201C4B9847042C02D9F7
S11302803079194B9847042D02D12E20174B9847EB
S1130290032C02D9F078144B9847032D02D12E2059
S11302A0124B9847022C02D9B0780F4B9847022D75
S11302B002D12E200D4B9847012C02D970780A4B9D
S11302C09847012D02D12E20084B9847002C02D0CC
S11302D03078054B9847BD460CBC90469946F8BD0E
S11302E029010000F5060000B506000081060000A3
S11302F0F0B5002902DD0027C75700E000270129D7
S113030006DD0123C3569E00F3185B009C4601E002
S113031000239C460026022903DD0223C3566426DB
S11303205E430025032904DD0323C356FA25AD00EB
S11303305D430024042903DD0423C3560B4C5C43B2
S11303400022052903DD0523C356094A5A43002325
S1130350062903DD0623C35606494B436146C819E3
S1130360861975192C19A218D018F0BD1027000091
S1130370A086010040420F00F0B55F4656464D4648
S11303804446F0B489B002AF7860396192469B4626
S11303904021C95D7961131C0733DB08DB006A4621
S11303A0D21A954602ABBB609846009178683969C9
S11303B052465B46464CA0475246D2B23A6052B2CD
S11303C07868B968434B9847434B98475346013B79
S11303D0DBB2FB6058467969404B98477E69FD68FB
S11303E03F4CA0470028FCD03E4B98473E490B7831
S11303F0002B0BD06AB2914643464B441878013027
S113040040B23A4B9847414649440870384B1B78F0
S1130410002B0BD06AB2914643464B4418780138FE
S113042040B2324B9847414649440870314B1B78DF
S1130430002B03D1304B1B78002B23D02D4B1B7882
S1130440002B01D0013DEDB22B4B1B78002B01D0CA
S11304500135EDB26BB25246013A934202DC002BF5
S113046002DB02E0002500E0FD687A69161C5644B0
S1130470761BF6B2731EDBB252443969521A9342A8
S113048000DA1E1C1D4B1B78002B05D03A6851B2B4
S1130490B8681B4B984712E01A4B1B78002B0DD100
S11304A05846311C0D4B994698476BB24146C85C7F
S11304B0154B98475846311CC84792E77868BD46A3
S11304C007B03CBC90469946A246AB46F0BDC04638
S11304D0210200002901000065070000F506000064
S11304E049090000850900007F0000201101000077
S11304F080000020740000207D0000207E00002089
S1130500F10200007C000020B506000008B5024B93
S11305101B680020984708BD3800002008B5024B2E
S11305205B680120984708BD3800002008B5024BDD
S11305309B680220984708BD3800002008B5024B8C
S1130540DB680320984708BD3800002008B5024B3B
S11305501B690420984708BD3800002008B5024BE9
S11305605B690520984708BD3800002010B5802439
S11305706403044B1C600220034B9847034B1C602C
S113058010BDC046184400419108000014440041C5
S1130590F8B54F464646C0B4814600240D4B9846F4
S11305A00D4F0E4E4346E51828780021B8472878A9
S11305B04B46234101211940B0470134042CF1D1A9
S11305C00220074B9847074B98470CBC9046994626
S11305D0F8BDC04678000020950A0000990B000081
S11305E0910800006D050000F0B54F464646C0B4C2
S11305F083B06C460123E371132002211B4B9847FF
S11306008022D2001A4B1A6080229203194B1A607E
S1130610E379002B1AD0164A904680246403A1463D
S11306204B46424613600220134FB847114E3460C4
S1130630124B1B681B03DB0F6D46EB7143461C60BA
S11306400220B8473460EB79002BE9D1084B8022B3
S113065052031A60802292031A6013200021034B74
S1130660984703B00CBC90469946F0BD950A00002B
S11306701444004118440041910800002044004102
S113068038B5051C8022D200064B1A6080229203E2
S1130690054B1A600009054CA047281CA047044BD1
S11306A0984738BD184400411444004191050000A6
S11306B0E905000008B53030C0B2014B984708BDC9
S11306C08106000038B5051C074B8022D2001A6051
S11306D0802292031A600009044CA047281CA047FA
S11306E0034B984738BDC0461444004191050000AF
S11306F0E905000008B502280DD002D8012805D06C
S113070017E003280CD004280FD012E07F31C8B2C0
S1130710084B98470DE04139C8B2064B984708E0AA
S11307206D39C8B2034B984703E02D39C8B2014B69
S1130730984708BDC506000070B50E1C07280CD8E4
S11307400830C000C0B2054B9847341C0836044D2D
S11307502078A8470134B442FAD170BDC506000020
S11307608106000008B50E20014B984708BDC0461D
S1130770C506000008B50C20014B984708BDC046CB
S1130780C506000008B50120014B984708BDC046C6
S1130790C506000008B51720024B9847024B98473E
S11307A008BDC046C5060000E905000038B51020A4
S11307B00021274CA04711200021A047122000212E
S11307C0A04713200021A0470A200021A04715209C
S11307D00021A04714200021A0471E4B10221A70AC
S11307E011225A7012229A701322DA701A4B802244
S11307F0D2001A60802292031A606420174CA0472A
S11308000320174DA8472820A0470320A8472820E5
S1130810A0470320A8471E20A0470220A847322053
S1130820A04728200F4DA8470F4CA0470820A847F1
S1130830A0470620A847A0470E20A847A0470120AC
S1130840A847A0478020A847A047084B984738BD31
S1130850950A00007800002014440041C9080000F3
S113086091050000C5060000E90500009507000099
S113087082B000230193019B012B07DCC046C046D4
S1130880019B01330193019B012BF7DD02B07047FB
S113089010B582B00190019B002B07D0044CA047F7
S11308A0019B013B0193019B002BF8D102B010BDC9
S11308B07108000008B50248024B984708BDC046BD
S11308C01A0400009108000010B582B00190019B49
S11308D0002B07D0044CA047019B013B0193019BD3
S11308E0002BF8D102B010BDB508000010B52D20C2
S11308F00321074CA0472E200321A0472A200021D2
S1130900A0472B200021A0472C200021A04710BD88
S1130910950A00000023064A1370064A1370064A1B
S11309201370064A1370064A1370064A1370704710
S11309307C0000207D0000207F000020800000203B
S1130940740000207E00002008B50C4B8022D200E9
S11309501A60802212011A60802252011A602D202E
S1130960074B9847031C0120002B05D02E20044B75
S1130970984701235840C0B208BDC0469444004182
S1130980CD0B0000F0B557464E464546E0B42F4B1C
S11309909847002852D014202D4B98472B4B98474A
S11309A0002848D02B4F8023DB009A463B602A4E18
S11309B080231B019946336080235B019846336092
S11309C02D20264DA84701246040C0B2244B187046
S11309D02E20A8476040C0B2224B187053463360A3
S11309E04B463B60434633602D20A8476040C0B26D
S11309F01D4B18702E20A8476040C0B21B4B1870C6
S1130A00534633604B46336043463B602D20A84732
S1130A106040C0B2164B18702E20A8474440E0B284
S1130A20144B1870094C0A4D01E00120A847A04757
S1130A300028FAD104E0104B984701E00E4B984788
S1130A401CBC90469946A246F0BDC0464909000028
S1130A50C90800009444004198440041CD0B0000B3
S1130A607C0000207D0000207F000020800000200A
S1130A70740000207E000020150900008023DB01A3
S1130A8019430302081C1843014B18807047C046E1
S1130A90020C004010B500290ED14309DB0139498D
S1130AA05A181F210840012181401160364A8018DC
S1130AB0C31800221A7063E0012910D14309DB0135
S1130AC032495A181F2108400121814011602E4AE1
S1130AD08018C018027804231343037050E00229DD
S1130AE010D14309DB0129495A181F21084001216B
S1130AF081401160244A8018C018027802231343ED
S1130B0003703DE0052910D14309DB011D495A1842
S1130B101F2108400121814011601B4A8018C01820
S1130B2002780223134303702AE0032913D14309F3
S1130B30DB01164A99181F221040012282400A60E4
S1130B4011494018C0180478062121430170104946
S1130B505B181A6014E0042912D14309DB010B4A23
S1130B6099181F221040012282400A600649401849
S1130B70C018047806212143017006495B181A60E5
S1130B8010BDC046084400414044004104440041B3
S1130B901844004114440041002909D04309DB01F1
S1130BA0084A9B181F221040012282401A6008E064
S1130BB04309DB01044A9B181F2210400122824092
S1130BC01A60704718440041144400414309DB0192
S1130BD0064A9B181B681F22104001228240101CE9
S1130BE01840431E9841C0B27047C046204400419B
S1130BF030B50A290BD11F230340174A9B1840091B
S1130C00C0011818037801229343037023E04209BA
S1130C10D2011F230340104D5C19A418012525702F
S1130C20C4070BD45B080D4D5B199A1813780F2079
S1130C30834313701378194311700CE05B08074861
S1130C401B189B1818780F2202401A701A78090191
S1130C501143C9B2197030BD4044004130440041D1
S1130C600C4B1B68002B10D1EFF31083002B09D120
S1130C7072B6BFF35F8F0022074B1A700122074B35
S1130C801A7002E00022054B1A70024B1A680132F6
S1130C901A6070475000002000000020540000201B
S1130CA0084B1A68013A1A601B68002B09D1064BDD
S1130CB01B78002B05D00122044B1A70BFF35F8F01
S1130CC062B670475000002054000020000000204D
S1130CD0F0B583B001AC012565700027A7702570BD
S1130CE03E20211C064EB0478022D205054B9A6156
S1130CF0277065700F20211CB04703B0F0BDC046BB
S1130D00090D00008044004100B583B001AB80228E
S1130D101A700A785A704A789A708A78DA70191CAC
S1130D20014B984703B000BDF112000070B50C4BA5
S1130D301C6A0178857840780122104080014026A1
S1130D40B44304432A40D00180229443221C02432A
S1130D50032001400902034802400A431A6270BD9D
S1130D6000080040FFFCFFFFF0B55F4656464D46C5
S1130D704446F0B4254A948A457803785942594147
S1130D808A4683789C46C178884603799946467B8F
S1130D90077B817B8B4680681D4B5861012351463C
S1130DA0880004218C43044348461840C0000821AD
S1130DB08C43044340461840000110218C430443F3
S1130DC060461840400120218C430443181C3840DD
S1130DD080014027BC430443181C3040C0018026D6
S1130DE0B44304430720284000020A4D2C40044326
S1130DF059460B4019030848231C03400B439382B4
S1130E003CBC90469946A246AB46F0BD0008004063
S1130E1058000020FFF8FFFFFFEFFFFF10B5027A34
S1130E209206120C43899B059B0D1A43154B5A607D
S1130E30818842881143C479827922430A434178E4
S1130E40C9010A431A600378042B0FD1027B92066E
S1130E50038A1A43C3891B040B490B401A43094BE9
S1130E609A60196804220A431A6009E0202B07D10A
S1130E70028A044B9A6019688422D2000A431A60D9
S1130E8010BDC046580000200000FF03082843D8C6
S1130E908000224B1B589F4600203EE0204B196ADD
S1130EA002220A431A62002037E01D4B996902228C
S1130EB00A439A61002030E0194B198A02220A433E
S1130EC01A82002029E0164B998A02220A439A8248
S1130ED0002022E0134B196802220A431A601A68A0
S1130EE0114B1A400E4B9A84191C1022CB681A42DB
S1130EF0FCD00C4A91680A4BD96251689962126815
S1130F0092B29A84002008E0054A4423D05C02216E
S1130F100143D154002000E0172070473016000030
S1130F2000080040580000207FFF0000F0B58FB09B
S1130F30C222D2004B4B9A604B4B5A681E218A4303
S1130F4004210A435A60022201AB1A700024474D5F
S1130F50E0B201A9A8470134252CF9D10AA800233D
S1130F600370042242708370802212028260C37074
S1130F70012202710373837343736A46D3843C4B27
S1130F80984705203B4B9847364802216B46263349
S1130F90394C0BE01A88013292B21A801A8892B244
S1130FA0A24203D90122354B1A7002E0C2681142F1
S1130FB0F0D02C4B998A80220A439A8205A80023F8
S1130FC00025438083808571C571072202723F2307
S1130FD04381042101704570294901820273C38150
S1130FE0284B984704A84570012686700570264B47
S1130FF0984706201F4FB847244B984701AC0296E8
S1131000657025726572052323700120211C204B15
S1131010984701201F4B984726700020211C134B32
S1131020984700201C4B98470720B8470D49D02209
S1131030CB681340D02BFBD1184A00231372537290
S1131040937201A901224A604B700B724B72072301
S11310500B7000200E4B984700200E4B98470FB0A2
S1131060F0BDC046000800400040004149120000A5
S1131070690D00008D0E000060EA00007000002081
S1131080B90500001D0E00002D0D0000A110000088
S1131090C510000079110000BD11000000040040DB
S11310A0064B996908220A439A610122044B1A707B
S11310B0191C0B781342FCD17047C0460004004051
S11310C0000C0040F8B5061C071C0D782D020543E2
S11310D04B78002B02D08023DB021D434B7A002B7C
S11310E002D080231B031D434C68012C17D9631EB7
S11310F01C420FD1022C06D90223002201325B00CC
S11311009C42FBD800E000221702374380235B0394
S11311101D4304E02702374380239B021D430B7ABF
S1131120002B02D080239B031D430F4A53785BB2EC
S1131130002BFBDB0D4B98470D4B1E700A4A53786E
S11311405BB2002BFBDB084B9F601A1C53785BB22D
S1131150002BFBDB044B5968802252020A401543E2
S11311605D60044B9847F8BD000C0040610C000022
S1131170080C0040A10C000010B5041C0B4A537865
S11311805BB2002BFBDB0A4B98470A4B1C70074AE7
S113119053785BB2002BFBDB044B5968802252026C
S11311A00A435A60044B984710BDC046000C0040E7
S11311B0610C0000040C0040A10C000010B5041CDC
S11311C0064B9847064B1C70064B59888022D20167
S11311D00A435A80044B984710BDC046610C000076
S11311E0020C0040000C0040A10C000010B5041CCF
S11311F00F4B98470F4B1C700F4B58880005000F7E
S113120059880E4A0A405A8059880D4A0A405A8021
S1131210191C8022D2014B881342FCD1064B0102D7
S11312205888064A02400A435A80064B984710BD24
S1131230610C0000020C0040000C0040FFF0FFFFB6
S1131240FFBFFFFFA10C000010B50C78240204437B
S1131250024B9847A4B2024B5C8010BDED11000014
S1131260000C004030B5D378002B1ED11378802BAE
S113127004D01B0680246402234300E00023547836
S11312800225AC430AD19478002C03D18024A40213
S1131290234302E0C024E402234341605478013C28
S11312A0012C04D8114C234001E0416000230D04BB
S11312B02D0CA024E4052C431C4384620D0CD02483
S11312C024062C431C438462D478002C0CD15C0388
S11312D005D59378012B01D1816100E041615378F8
S11312E0013B012B00D8816030BDC046FFFFFBFFEE
S11312F008B5031C0A1CC1090020002903D15809A0
S1131300C001044940181F210B4001219940024BA0
S1131310984708BD00440041651200007047C0466C
S113132008B5044B9847044B9847044B9847044B23
S1131330984708BD2D0F0000D10C00001D130000BC
S11313401D130000FEE7C04670B5022190235B0028
S1131350284AD150284BD8780321884302221043CD
S1131360D870DD780C24A54308200543DD70234B99
S11313709E7B3025AE43202535439D739D7BA5433D
S113138028439873987B884302439A731C4B1D4AE5
S11313909A4203D01C4B1A4A9A4204D31B4B1C4A50
S11313A09A4210D31BE01B4B17480330C01A800825
S11313B00130800000231249124AD458CC5004331F
S11313C08342FAD1EAE7124B1A1D10490331891AF4
S11313D0890889005218002102C39342FCD10E4BA4
S11313E07F210E4A8A439A600D4B98470D4B9847CC
S11313F0FEE7C04600700041005000410048004133
S113140000000020741600001C0000204C01002085
S11314101C0000200400002000ED00E0000000009B
S1131420E5150000BD14000010B50D4B19688022AD
S113143092010A431A6000201C210A4B98470A4C67
S1131440012323804022094B1A702F200421084BCA
S11314509847084B23807F22074B1A7010BDC04663
S1131460200400407D0A000000340042053400429C
S1131470F10B0000460500001934004210B5084B7A
S11314809847084B9847084B984700200749084C51
S1131490A04701200749A04702200749A04710BDE3
S11314A029140000AD070000750700000C0000209F
S11314B039070000040000201400002030B583B078
S11314C0144B9847144B9847144B9847144DA8470E
S11314D003201421134CA0477F20134B984701206D
S11314E00121A047A84701200221A0470F4B98479C
S11314F00F4A104B1A830A2400940F480421072230
S113150001230E4DA84700940221072203230C4C0B
S1131510A047FEE721130000ED0800007D14000041
S113152085070000F506000081060000650700003D
S113153025270000A0000020E0FF0400790300003C
S113154021020000002934D00123002210B4884273
S11315502CD301242407A14204D2814202D20901DE
S11315601B01F8E7E400A14204D2814202D24900FF
S11315705B00F8E7884201D3401A1A434C08A042A2
S113158002D3001B5C0822438C08A04202D3001B38
S11315909C082243CC08A04202D3001BDC0822434F
S11315A0002803D01B0901D00909E3E7101C10BC73
S11315B07047002801D00020C04307B4024802A1AC
S11315C04018029003BDC046190000000029F0D065
S11315D003B5FFF7B9FF0EBC4243891A1847C0464A
S11315E07047C04670B50E4B0E4D0024ED1AAD1079
S11315F01E1CAC4204D0A300F35898470134F8E70A
S113160000F028F8084B094D0024ED1AAD101E1CFB
S1131610AC4204D0A300F35898470134F8E770BDF6
S113162060160000601600006016000064160000DA
S1131630B80E0000180F0000180F0000980E0000EC
S1131640AA0E0000C60E00009C0E0000D40E00007E
S1131650080F0000F8B5C046F8BC08BC9E467047A9
S1131660D9000000F8B5C046F8BC08BC9E467047D7
S1071670B1000000C1
S1131674010000001818001F191F18180A0A0A0A82
S10F16840A0A0A0A0C12120C00000000F2
S9031349A0
