:1000000078200020C10E0000BD0E0000BD0E0000D3
:1000100000000000000000000000000000000000E0
:10002000000000000000000000000000BD0E000005
:100030000000000000000000BD0E0000BD0E00002A
:10004000BD0E0000BD0E0000BD0E0000BD0E000084
:10005000BD0E0000BD0E0000BD0E0000BD0E000074
:10006000BD0E00001101000021010000310100005F
:10007000410100005101000061010000BD0E0000BF
:10008000BD0E0000BD0E0000BD0E0000BD0E000044
:10009000BD0E0000BD0E0000BD0E0000BD0E000034
:1000A000BD0E0000BD0E0000BD0E0000BD0E000024
:1000B00010B5064C2378002B07D1054B002B02D03E
:1000C000044800E000BF0123237010BD1C00002085
:1000D00000000000B413000008B5084B002B03D04B
:1000E0000748084900E000BF07480368002B03D019
:1000F000064B002B00D0984708BDC046000000000A
:10010000B413000020000020B41300000000000021
:1001100008B5024B1B680020984708BD3800002036
:1001200008B5024B5B680120984708BD38000020E5
:1001300008B5024B9B680220984708BD3800002094
:1001400008B5024BDB680320984708BD3800002043
:1001500008B5024B1B690420984708BD38000020F1
:1001600008B5024B5B690520984708BD38000020A0
:1001700010B580246403044B1C600220034B984795
:10018000034B1C6010BDC046184400415D050000D3
:1001900014440041F8B54F464646C0B48146002499
:1001A0000D4B98460D4F0E4E4346E518287800211A
:1001B000B84728784B46234101211940B047013404
:1001C000042CF1D10220074B9847074B98470CBCF1
:1001D00090469946F8BDC0467400002031060000E4
:1001E000350700005D05000071010000F0B54F46C5
:1001F0004646C0B483B06C460123E371132002214C
:100200001B4B98478022D2001A4B1A60802292031F
:10021000194B1A60E379002B1AD0164A90468024B5
:100220006403A1464B46424613600220134FB84771
:10023000114E3460124B1B681B03DB0F6D46EB71D4
:1002400043461C600220B8473460EB79002BE9D1AB
:10025000084B802252031A60802292031A601320F6
:100260000021034B984703B00CBC90469946F0BD63
:100270003106000014440041184400415D050000AF
:100280002044004138B5051C8022D200064B1A607C
:1002900080229203054B1A600009054CA047281CD8
:1002A000A047044B984738BD18440041144400410E
:1002B00095010000ED01000038B5041C007800280D
:1002C00005D0034D0134A84720780028FAD138BD65
:1002D0008502000038B5051C074B8022D2001A6049
:1002E000802292031A600009044CA047281CA047F2
:1002F000034B984738BDC0461444004195010000A7
:10030000ED01000008B502280DD002D8012805D063
:1003100017E003280CD004280FD012E07F31C8B2B8
:10032000084B98470DE04139C8B2064B984708E0A2
:100330006D39C8B2034B984703E02D39C8B2014B61
:10034000984708BDD5020000F0B5474680B4041CAC
:100350008846171C1E1C8020094DA847201C094CEC
:10036000A047C020A8474046A0479420A847381C73
:10037000A047D420A847301CA04704BC9046F0BD3D
:10038000D5020000B902000070B50E1C07280CD879
:100390000830C000C0B2054B9847341C0836044DE5
:1003A0002078A8470134B442FAD170BDD5020000CC
:1003B00085020000F8B58020134DA847FF20134C9C
:1003C000A047134F381C134EB0479320A847FF2077
:1003D000A047D420A847FF20A047381CB047E720FB
:1003E000A847FF20A047C020A8470020A047D3204F
:1003F000A8470020A0479420A8470020A047A72096
:10040000A8470020A047F8BDD502000085020000E3
:1004100078110000B902000008B50E20014B984782
:1004200008BDC046D502000008B50C20014B984716
:1004300008BDC046D502000008B50120014B984711
:1004400008BDC046D502000008B51320024B9847EE
:10045000024B984708BDC046D5020000ED010000E0
:1004600008B51720024B9847024B984708BDC04675
:10047000D5020000ED01000038B510200021274C06
:10048000A04711200021A04712200021A0471320DF
:100490000021A0470A200021A04715200021A047E5
:1004A00014200021A0471E4B10221A7011225A70EE
:1004B00012229A701322DA701A4B8022D2001A602C
:1004C000802292031A606420174CA0470320174D26
:1004D000A8472820A0470320A8472820A04703209A
:1004E000A8471E20A0470220A8473220A047282066
:1004F0000F4DA8470F4CA0470820A847A04706204B
:10050000A847A0470E20A847A0470120A847A0471A
:100510008020A847A047084B984738BD3106000007
:10052000740000201444004195050000950100006E
:10053000D5020000ED0100006104000082B000233C
:100540000193019B012B07DCC046C046019B013390
:100550000193019B012BF7DD02B0704710B582B00B
:100560000190019B002B07D0044CA047019B013B4D
:100570000193019B002BF8D102B010BD3D05000096
:1005800008B50248024B984708BDC0461A0400004F
:100590005D05000010B582B00190019B002B07D0D3
:1005A000044CA047019B013B0193019B002BF8D118
:1005B00002B010BD8105000070B582B06B46D880D6
:1005C00006331B889BB2002B0ED0FA26B600074DCF
:1005D0006C460634301CA8472388013B9BB223801D
:1005E00023889BB2002BF5D102B070BD95050000A9
:1005F00010B52D200321074CA0472E200321A04732
:100600002A200021A0472B200021A0472C200021D8
:10061000A04710BD310600008023DB01194303020F
:10062000081C1843014B18807047C046020C00405C
:1006300010B500290ED14309DB0139495A181F2191
:100640000840012181401160364A8018C3180022F9
:100650001A7063E0012910D14309DB0132495A18AD
:100660001F2108400121814011602E4A8018C018C6
:10067000027804231343037050E0022910D1430988
:10068000DB0129495A181F210840012181401160CE
:10069000244A8018C01802780223134303703DE0F7
:1006A000052910D14309DB011D495A181F210840B3
:1006B0000121814011601B4A8018C0180278022372
:1006C000134303702AE0032913D14309DB01164ABF
:1006D00099181F221040012282400A6011494018D7
:1006E000C018047806212143017010495B181A6074
:1006F00014E0042912D14309DB010B4A99181F2287
:100700001040012282400A6006494018C01804784F
:1007100006212143017006495B181A6010BDC046CE
:100720000844004140440041044400411844004151
:1007300014440041002909D04309DB01084A9B18F1
:100740001F221040012282401A6008E04309DB01A9
:10075000044A9B181F221040012282401A607047F1
:10076000184400411444004130B50A290BD11F231D
:100770000340174A9B184009C0011818037801224A
:100780009343037023E04209D2011F230340104D1D
:100790005C19A41801252570C4070BD45B080D4D06
:1007A0005B199A1813780F20834313701378194339
:1007B00011700CE05B0807481B189B1818780F2273
:1007C00002401A701A7809011143C9B2197030BD7C
:1007D00040440041304400410C4B1B68002B10D1B9
:1007E000EFF31083002B09D172B6BFF35F8F0022A5
:1007F000074B1A700122074B1A7002E00022054BCA
:100800001A70024B1A6801321A60704750000020BB
:100810000000002054000020084B1A68013A1A60BA
:100820001B68002B09D1064B1B78002B05D0012239
:10083000044B1A70BFF35F8F62B670475000002000
:100840005400002000000020F0B583B001AC012569
:1008500065700027A77025703E20211C064EB0470A
:100860008022D205054B9A61277065700F20211CEC
:10087000B04703B0F0BDC04681080000804400418D
:1008800000B583B001AB80221A700A785A704A789A
:100890009A708A78DA70191C014B984703B000BD32
:1008A000690E000070B50C4B1C6A017885784078A1
:1008B0000122104080014026B44304432A40D00165
:1008C00080229443221C0243032001400902034872
:1008D00002400A431A6270BD00080040FFFCFFFF9F
:1008E000F0B55F4656464D464446F0B4254A948AD4
:1008F00045780378594259418A4683789C46C178A5
:10090000884603799946467B077B817B8B468068C6
:100910001D4B586101235146880004218C43044338
:1009200048461840C00008218C4304434046184004
:10093000000110218C4304436046184040012021EF
:100940008C430443181C384080014027BC430443B7
:10095000181C3040C0018026B443044307202840BF
:1009600000020A4D2C40044359460B401903084825
:10097000231C03400B4393823CBC90469946A246FD
:10098000AB46F0BD0008004058000020FFF8FFFF14
:10099000FFEFFFFF10B5027A9206120C43899B0508
:1009A0009B0D1A43154B5A60818842881143C479C4
:1009B000827922430A434178C9010A431A600378C5
:1009C000042B0FD1027B9206038A1A43C3891B04AE
:1009D0000B490B401A43094B9A60196804220A43D9
:1009E0001A6009E0202B07D1028A044B9A6019682B
:1009F0008422D2000A431A6010BDC046580000206D
:100A00000000FF03082843D88000224B1B589F4654
:100A100000203EE0204B196A02220A431A6200209D
:100A200037E01D4B996902220A439A61002030E0A9
:100A3000194B198A02220A431A82002029E0164B18
:100A4000998A02220A439A82002022E0134B1968F5
:100A500002220A431A601A68114B1A400E4B9A84FC
:100A6000191C1022CB681A42FCD00C4A91680A4B20
:100A7000D96251689962126892B29A84002008E0A3
:100A8000054A4423D05C02210143D154002000E0F8
:100A9000172070478C11000000080040580000200B
:100AA0007FFF0000F0B58FB0C222D2004B4B9A609E
:100AB0004B4B5A681E218A4304210A435A60022282
:100AC00001AB1A700024474DE0B201A9A8470134D8
:100AD000252CF9D10AA800230370042242708370E8
:100AE000802212028260C370012202710373837339
:100AF00043736A46D3843C4B984705203B4B984749
:100B0000364802216B462633394C0BE01A880132F5
:100B100092B21A801A8892B2A24203D90122354BAE
:100B20001A7002E0C2681142F0D02C4B998A8022E0
:100B30000A439A8205A8002300254380838085719B
:100B4000C571072202723F23438104210170457061
:100B5000294901820273C381284B984704A8457034
:100B6000012686700570264B984706201F4FB84710
:100B7000244B984701AC0296657025726572052377
:100B800023700120211C204B984701201F4B9847C0
:100B900026700020211C134B984700201C4B9847BF
:100BA0000720B8470D49D022CB681340D02BFBD18A
:100BB000184A002313725372937201A901224A60EA
:100BC0004B700B724B7207230B7000200E4B984733
:100BD00000200E4B98470FB0F0BDC0460008004003
:100BE00000400041C10D0000E1080000050A0000BE
:100BF00060EA000070000020B905000095090000BF
:100C0000A5080000190C00003D0C0000F10C0000CC
:100C1000350D000000040040064B996908220A4384
:100C20009A610122044B1A70191C0B781342FCD1F3
:100C30007047C04600040040000C0040F8B5061C98
:100C4000071C0D782D0205434B78002B02D0802322
:100C5000DB021D434B7A002B02D080231B031D4374
:100C60004C68012C17D9631E1C420FD1022C06D9E7
:100C70000223002201325B009C42FBD800E00022EC
:100C80001702374380235B031D4304E027023743E9
:100C900080239B021D430B7A002B02D080239B03F1
:100CA0001D430F4A53785BB2002BFBDB0D4B98477B
:100CB0000D4B1E700A4A53785BB2002BFBDB084BCE
:100CC0009F601A1C53785BB2002BFBDB044B596806
:100CD000802252020A4015435D60044B9847F8BDDC
:100CE000000C0040D9070000080C00401908000063
:100CF00010B5041C0B4A53785BB2002BFBDB0A4B8C
:100D000098470A4B1C70074A53785BB2002BFBDBF9
:100D1000044B5968802252020A435A60044B984798
:100D200010BDC046000C0040D9070000040C004074
:100D30001908000010B5041C064B9847064B1C70A0
:100D4000064B59888022D2010A435A80044B9847A7
:100D500010BDC046D9070000020C0040000C004046
:100D60001908000010B5041C0F4B98470F4B1C705E
:100D70000F4B58880005000F59880E4A0A405A80C8
:100D800059880D4A0A405A80191C8022D2014B888A
:100D90001342FCD1064B01025888064A02400A431E
:100DA0005A80064B984710BDD9070000020C00403E
:100DB000000C0040FFF0FFFFFFBFFFFF190800001D
:100DC00010B50C7824020443024B9847A4B2024B9E
:100DD0005C8010BD650D0000000C004030B5D3787C
:100DE000002B1ED11378802B04D01B0680246402B4
:100DF000234300E0002354780225AC430AD19478C1
:100E0000002C03D18024A402234302E0C024E40286
:100E1000234341605478013C012C04D8114C2340F9
:100E200001E0416000230D042D0CA024E4052C43B7
:100E30001C4384620D0CD02424062C431C43846282
:100E4000D478002C0CD15C0305D59378012B01D10B
:100E5000816100E041615378013B012B00D8816042
:100E600030BDC046FFFFFBFF08B5031C0A1CC109CB
:100E70000020002903D15809C001044940181F214E
:100E80000B4001219940024B984708BD00440041A6
:100E9000DD0D00007047C04608B5044B9847044B71
:100EA0009847044B9847044B984708BDA50A000093
:100EB00049080000950E0000950E0000FEE7C046B0
:100EC00070B5022190235B00284AD150284BD87876
:100ED0000321884302221043D870DD780C24A543F7
:100EE00008200543DD70234B9E7B3025AE43202533
:100EF00035439D739D7BA54328439873987B884316
:100F000002439A731C4B1D4A9A4203D01C4B1A4A47
:100F10009A4204D31B4B1C4A9A4210D31BE01B4B32
:100F200017480330C01A800801308000002312499E
:100F3000124AD458CC5004338342FAD1EAE7124B18
:100F40001A1D10490331891A890889005218002195
:100F500002C39342FCD10E4B7F210E4A8A439A6012
:100F60000D4B98470D4B9847FEE7C0460070004177
:100F7000005000410048004100000020B413000070
:100F80001C000020780000201C000020040000202D
:100F900000ED00E0000000002D110000C110000075
:100FA00010B50D4B1968802292010A431A60002087
:100FB0001C210A4B98470A4C012323804022094BED
:100FC0001A702F200421084B9847084B23807F225A
:100FD000074B1A7010BDC0462004004019060000DF
:100FE0000034004205340042690700004605000055
:100FF0001934004210B5084B9847084B9847084BE6
:10100000984700200749084CA04701200749A047FE
:1010100002200749A04710BDA10F0000790400007D
:10102000290400000C0000208903000004000020B7
:101030001400002070B5164B9847164B98470120B6
:101040000921154CA0471548154DA84701200A2134
:10105000A0470120134B984702200721A0471248C0
:10106000A84703200621A0471048A847104B9847DF
:101070000120104EB04702200221A0470E48A84789
:1010800003200221A0470D48A8470120B04770BDAA
:1010900049040000B5030000050300009812000099
:1010A000B9020000850200009C120000AC12000092
:1010B00061040000B9050000BC120000D01200005D
:1010C00010B5104B9847104B9847104B9847104B52
:1010D0009847104B9847032014210F4CA0477F20BE
:1010E0000E4B984701200121A0470D4B98470D4812
:1010F000011C1531021C2A32031C3F330A4CA04745
:10110000FEE7C046990E0000F1050000F50F000053
:1011100035100000390400000503000085020000BE
:1011200019040000B01100004903000070B50E4B17
:101130000E4D0024ED1AAD101E1CAC4204D0A300CD
:10114000F35898470134F8E700F024F9084B094DAB
:101150000024ED1AAD101E1CAC4204D0A300F358BD
:1011600098470134F8E770BDA0130000A0130000F9
:10117000A0130000A41300003D3D3D3D3D3D3D3D1D
:101180003D3D3D3D3D3D3D3D3D3D0000300A0000C3
:10119000900A0000900A0000100A0000220A0000D5
:1011A0003E0A0000140A00004C0A0000800A0000F9
:1011B000202043616C6962726174696F6E206F6692
:1011C0003A20200000312E4162736F6C75746520E7
:1011D00050726573737572650000322E50617274BF
:1011E000692E204F7269662E445020202000003363
:1011F0002E476173656F7573204F7269662E445078
:1012000020200000342E5069746F74204450202038
:10121000202020202020200000352E537461636B95
:101220002D542F4320202020202020200000362E67
:10123000416D6269656E742054656D702E202020AA
:10124000200000372E4D657465722054656D702E38
:101250002020202020200000382E417578696C6CF9
:101260006172792054656D702E20200000392E5057
:101270006172746963756C61746520466C6F772068
:10128000000031302E476173656F757320466C6FB7
:10129000772020202000000020202000506F6C6C60
:1012A000746563682020202000000000496E73747C
:1012B00072756D656E747320202000005374616335
:1012C0006B4D6F6E69746F72696E674B6974000065
:1012D000204D6F64656C2050454D2D534D4B203291
:1012E0003020000020526561647920666F722041D1
:1012F00075746F2D5A65726F00000000284B65658C
:1013000070205069746F62204173732E204F757482
:1013100000000000262053616D706C696E672050DC
:10132000756D70204F666629000000002020507205
:1013300065737320456E746572204B65792020209B
:10134000000000002020446F696E67204175746FB3
:101350002D5A65726F2020200000000020202020E0
:10136000202020202020202020202020202020207D
:10137000000000002D2D2D2D2D2D000020202041BE
:1013800075746F2D5A65726F20646F6E6520202012
:1013900000000000F8B5C046F8BC08BC9E46704787
:1013A000D9000000F8B5C046F8BC08BC9E4670479E
:0413B000B100000088
:1013B400010000001818001F191F18180A0A0A0A49
:0C13C4000A0A0A0A0C12120C00000000B9
:0400000300000EC12A
:00000001FF
