S0190000534D4B323020544553542053414D4432312E73726563B6
S11300006021002039220000352200003522000042
S113001000000000000000000000000000000000DC
S11300200000000000000000000000003522000075
S1130030000000000000000035220000352200000E
S11300403522000035220000352200003522000050
S11300503522000035220000352200003522000040
S1130060352200007D0D00008D0D00009D0D000067
S1130070AD0D0000BD0D0000CD0D000035220000C7
S11300803522000035220000352200003522000010
S11300903522000035220000352200003522000000
S11300A035220000352200003522000035220000F0
S11300B010B5064C2378002B07D1054B002B02D03A
S11300C0044800E000BF0123237010BD1C00002081
S11300D0000000005C29000008B5084B002B03D089
S11300E00748084900E000BF07480368002B03D015
S11300F0064B002B00D0984708BDC0460000000006
S11301005C290000200000205C29000000000000A1
S1130110F0B5474680B482B0071C0C1C151C39602E
S1130120081C5D4B9847061C5C4B196A821C012015
S11301309040021C0A431A6201A92B7B0B701436EF
S1130140F6B2301C564B9847301C564B9847287BC8
S11301500021554B984723681C20990700D597E048
S113016023680520DA0700D592E0142323603C6855
S1130170201C494B98478046802369460B70002316
S11301804B7001228A70CB70E8692E6A002803D173
S1130190201C0021454B98476A46107002226B468A
S11301A05A70030CD8B26946414B9847002E04D1CB
S11301B0201C01213D4B9847061C69460E70022302
S11301C04B70360CF0B23A4B9847AB8AFB80EB8A03
S11301D03B812A7E8023002A04D1364B9B789B07DF
S11301E0DB0FDB012A69002A00D01343AA681343FA
S11301F02422AA5C002A02D08022D2051343AA6AD0
S1130200002A00D013432C22AA5C002A02D08022A8
S1130210120513432D22AA5C002A02D08022120464
S113022013432E22AA5C002A02D08022D203134355
S113023022681343236080235B00636046461436C0
S1130240F6B2301C1C4B9847FA21C9002B6859435D
S11302504B1E1818194B9847471FFF2F0DD8301CF9
S1130260154B98476B68FA21C90059434B1E18185F
S1130270124B98470138FF2801D9402008E00004B8
S1130280FF231B041840FF231F400743E76000209F
S113029002B004BC9046F0BD410D000000040040D3
S11302A00521000079200000690B0000B90B000053
S11302B0E12100000020004121210000B1240000C0
S11302C0F0B583B0051C406807270097002105227C
S11302D003230D4CA047288980B2122600960021E2
S11302E003220323A047688980B2009700210522D6
S11302F00423A047A88980B2009600210322042386
S1130300A04703B0F0BDC046D906000010B582B0C6
S11303101D4C201C1D4B9847606807230093002147
S1130320052203231A4CA047431C2BD0164B5860BC
S1130330188980B212230093002103220323144C52
S1130340A047431C1ED080B20F4B1881588980B23D
S1130350072300930021052204230D4CA047431CCE
S113036010D080B2084B5881988980B21223009330
S1130370002103220423064CA047431C02D080B270
S1130380014B988102B010BD08010020C102000099
S1130390CD090000F0B5474680B484B0214F224E09
S11303A0224B9846381C311C4246214B214CA04715
S11303B008230093032301930E23029301200321B6
S11303C0012203231C4CA047C4B21C4B9847012CA8
S11303D00DD11B481B491C4A1C4B164DA8471C48F1
S11303E01C4B98471C4B9847144B984713E0022C1E
S11303F008D113481349144A144B0E4CA047174B09
S11304009847CFE7032C06D102201549154B98478E
S1130410154B9847C6E7002CC4D104B004BC9046E1
S1130420F0BDC046642600007C260000942600002F
S1130430AC260000C50F0000C914000051180000CC
S1130440C4260000DC260000F42600000C2700006F
S113045008010020C1020000711800000D03000013
S1130460242700000510000091180000F8B50F4B78
S113047098470F4F0F4E104D0A20391CB047C4B295
S1130480012C09D063B2012B02DC002C0AD005E058
S113049063B20A2B02DC05E0A847EDE70220074916
S11304A0074B9847002CE7D1F8BDC046FD1000006B
S11304B09C25000049130000950300003C27000020
S11304C005100000F0B583B0284B984700284BD0A6
S11304D0274B9847274B1B78002B45D0264B1B787E
S11304E0002B41D0254B1B78002B3DD1244B1B788E
S11304F0002B39D1234B1B78002B35D1224B1B7891
S1130500002B31D1214B984701202149214B984799
S1130510214D184C184EA8472378002BFBD1337873
S1130520002BF8D11A4F1D4E1D4C381C311C221CB7
S1130530231C1C4DA84708230093002000210722F8
S11305400323194DA847431C0ED001280AD00420C8
S11305501649104DA8470120154B9847042010490F
S1130560A847E2E7134B984703B0F0BD35160000E7
S113057069170000CC00002094000020EC0000204B
S11305803801002005010020040100200D110000A5
S113059050270000051000007116000068270000B5
S11305A0AC260000C50F0000CD0900008027000024
S11305B09D1200006D04000001680722CB691A42F5
S11305C0FCD1704730B58DB00F200021214B9847E6
S11305D080221202204B1A60642300931F4B019364
S11305E00023029369460B730B76802292030492D4
S11305F0012252428A8224228B540A932C228B5445
S11306002D228B542E228B54154B6A46CB82154BCC
S11306100793154B0893154D281C1549154B9847FE
S1130620C822154B1A602C68281C144B9847226862
S1130630022313432360E8880023102105E00133DB
S1130640834202D31023638302E0628B0A42F6D012
S11306500DB030BDA518000018440041480D00003D
S11306601027000002000C0002000D0050010020C1
S113067000100042110100000C100042B9050000F6
S1130680002807DB0923C10FDA17834251414B428B
S1130690184000E009207047F0B5474680B4051CB7
S11306A0002A12DD0C1C0131013AD2B289188846A5
S11306B0074F084E281C0A21B8472170281C0A211C
S11306C0B047051C01344445F4D104BC9046F0BD48
S11306D039250000B1240000F8B54F464646C0B4A1
S11306E000AF0D1C141C99462022D25D9046E31DD8
S11306F0DB08DB006A46D21A95466E4662B269464A
S1130700254B984748464146244B9847062C02D926
S1130710B079234B9847062D02D12E20214B9847C0
S1130720052C02D970791E4B9847052D02D12E2035
S11307301C4B9847042C02D93079194B9847042D47
S113074002D12E20174B9847032C02D9F078144B72
S11307509847032D02D12E20124B9847022C02D920
S1130760B0780F4B9847022D02D12E200D4B98479D
S1130770012C02D970780A4B9847012D02D12E2002
S1130780084B9847002C02D03078054B9847BD465B
S11307900CBC90469946F8BD99060000810F0000F4
S11307A0410F0000F10E0000F0B5002902DD002722
S11307B0C75700E00027012906DD0123C3569E0028
S11307C0F3185B009C4601E000239C4600260229A6
S11307D003DD0223C35664265E430025032904DD9A
S11307E00323C356FA25AD005D430024042903DD29
S11307F00423C3560B4C5C430022052903DD052367
S1130800C356094A5A430023062903DD0623C35667
S113081006494B436146C819861975192C19A21843
S1130820D018F0BD10270000A086010040420F0040
S1130830F0B55F4656464D464446F0B489B002AF23
S11308407860396192469B464021C95D7961131CE9
S11308500733DB08DB006A46D21A954602ABBB605D
S1130860984600917868396952465B46474CA047E0
S11308705246D2B23A6052B27868B968444B98474B
S1130880444B98475346013BDBB2FB6058467969B9
S1130890414B9847414B98477E69FD68404CA047BF
S11308A00028FCD03F4B98473F490B78002B0BD0D6
S11308B06AB2914643464B441878013040B23B4BF0
S11308C09847414649440870394B1B78002B0BD09C
S11308D06AB2914643464B441878013840B2334BD0
S11308E09847414649440870324B1B78002B03D18A
S11308F0314B1B78002B23D02E4B1B78002B01D0BF
S1130900013DEDB22C4B1B78002B01D00135EDB22B
S11309106BB25246013A934202DC002B02DB02E046
S1130920002500E0FD687A69161C5644761BF6B271
S1130930731EDBB252443969521A934200DA1E1C08
S11309401E4B1B78002B05D03A6851B2B8681C4B7B
S1130950984712E01B4B1B78002B0DD15846311CD5
S11309600D4B994698476BB24146C85C164B984765
S11309705846311CC84792E77868BD4607B03CBC6E
S113098090469946A246AB46F0BDC046D906000043
S113099099060000ED100000810F000051180000BE
S11309A035160000711600000501002081060000C4
S11309B03801002094000020EC00002004010020F5
S11309C0A9070000CC000020410F0000F0B55F46ED
S11309D056464D464446F0B489B002AF041C396112
S11309E092469B464021C95D7961131C0733DB089D
S11309F0DB006A46D21A954602ABBB60984600916A
S1130A00396952465B46484DA8475246D2B27A608D
S1130A1052B2201CB968454B9847454B98475346FA
S1130A20013BDBB2FB6058467969424B9847424B25
S1130A3098477E69FD68414CA0470028FCD0404B94
S1130A40984740490B78002B0BD06AB29146434635
S1130A504B441878013040B23B4B984741464944D7
S1130A6008703A4B1B78002B0BD06AB29146434670
S1130A704B441878013840B2334B984741464944B7
S1130A800870334B1B78002B03D1324B1B78002B9F
S1130A9023D02F4B1B78002B01D0013DEDB22D4B01
S1130AA01B78002B01D00135EDB26BB25246013AEE
S1130AB0934202DC002B02DB02E0002500E0FD682B
S1130AC07A69161C5644761BF6B2731EDBB2524486
S1130AD03969521A934200DA1E1C1F4B1B78002BF3
S1130AE005D07A6851B2B8681C4B984713E01C4B88
S1130AF01B78002B0DD15846311C0E4B9946984754
S1130B006BB24146C85C174B98475846311CC847DE
S1130B1092E701204042BD4607B03CBC904699464E
S1130B20A246AB46F0BDC046D906000099060000B7
S1130B30ED100000810F0000511800003516000070
S1130B407116000005010020810600003801002014
S1130B5094000020EC00002004010020A9070000FC
S1130B60CC000020410F000010B582B0041C0F4BD4
S1130B701B78002B01D000290DD001A90C70132083
S1130B800B4B984713200B4B9847084B5C70012282
S1130B901A70002007E0054B5A781D20141B621EB2
S1130BA094416442204002B010BDC0463800002089
S1130BB00521000079200000444B984233D006D828
S1130BC0434B98420DD0434B98421BD06FE0424BAD
S1130BD098424AD0414B984258D0414B984266D1F2
S1130BE032E0012965D0002904D0022906D0032966
S1130BF006D001E03B4867E0002065E03A4863E046
S1130C003A4861E0012956D0002904D0022906D0CF
S1130C10032906D001E0032056E0002054E03448C4
S1130C2052E0344850E0012947D0002904D0022979
S1130C3006D0032906D001E02F4845E0002043E018
S1130C402E4841E02E483FE0012938D0002904D045
S1130C50022906D0032906D001E02A4834E0002006
S1130C6032E0294830E029482EE0012929D0002922
S1130C7004D0022906D0032906D001E0244823E049
S1130C80002021E023481FE023481DE001291AD059
S1130C90002904D0022906D0032906D001E01F4808
S1130CA012E0002010E01E480EE01E480CE0002078
S1130CB00AE01D4808E01D4806E01D4804E01D4800
S1130CC002E01D4800E01D487047C0460010004285
S1130CD000080042000C004200180042001C0042C0
S1130CE00014004203000400030006000300070090
S1130CF003001E0003001F000300080003000A0095
S1130D0003000B0003001000030012000300130093
S1130D1003000C0003000E0003000F000300160084
S1130D20030018000300190003000500030001007C
S1130D30030009000300110003000D000300170065
S1130D4070B586B00C4A6B4670CA70C332CA32C3DF
S1130D50009E864206D001239A0069465258824278
S1130D6003D100E00023D8B203E00133062BF3D112
S1130D70002006B070BDC0469827000008B5024B9D
S1130D801B680020984708BD3C00002008B5024BB2
S1130D905B680120984708BD3C00002008B5024B61
S1130DA09B680220984708BD3C00002008B5024B10
S1130DB0DB680320984708BD3C00002008B5024BBF
S1130DC01B690420984708BD3C00002008B5024B6D
S1130DD05B690520984708BD3C00002010B58024BD
S1130DE06403044B1C600220034B9847034B1C60B4
S1130DF010BDC04618440041411200001444004193
S1130E00F8B54F464646C0B4814600240D4B98467B
S1130E100D4F0E4E4346E51828780021B847287830
S1130E204B46234101211940B0470134042CF1D130
S1130E300520074B9847074B98470CBC90469946AA
S1130E40F8BDC046C8000020A5180000A91900007C
S1130E5041120000DD0D0000F0B54F464646C0B417
S1130E6083B06C460123E371132002211B4B984786
S1130E708022D2001A4B1A6080229203194B1A6006
S1130E80E379002B1AD0164A904680246403A146C5
S1130E904B46424613600220134FB847114E34604C
S1130EA0124B1B681B03DB0F6D46EB7143461C6042
S1130EB00220B8473460EB79002BE9D1084B80223B
S1130EC052031A60802292031A6013200021034BFC
S1130ED0984703B00CBC90469946F0BDA518000095
S1130EE014440041184400414112000020440041D0
S1130EF038B5051C8022D200064B1A60802292036A
S1130F00054B1A600009054CA047281CA047044B58
S1130F10984738BD1844004114440041010E0000B4
S1130F20590E000038B5041C0078002805D0034D84
S1130F300134A84720780028FAD138BDF10E00000A
S1130F4008B53030C0B2014B984708BDF10E00001F
S1130F5038B5051C074B8022D2001A608022920308
S1130F601A600009044CA047281CA047034B98476B
S1130F7038BDC04614440041010E0000590E000063
S1130F8008B502280DD002D8012805D017E003289F
S1130F900CD004280FD012E07F31C8B2084B984718
S1130FA00DE04139C8B2064B984708E06D39C8B224
S1130FB0034B984703E02D39C8B2014B984708BD4D
S1130FC0510F0000F0B5474680B4041C8846171C36
S1130FD01E1C8020094DA847201C094CA047C02096
S1130FE0A8474046A0479420A847381CA047D420CF
S1130FF0A847301CA04704BC9046F0BD510F000028
S1131000250F000038B50C1C02280CD002D801288A
S113101005D00BE003280DD004280FD006E0802073
S11310200C4B984702E0C0200A4B984720780028D0
S113103008D10DE09420074B9847F7E7D420054BDF
S11310409847F3E7044D0134A84720780028FAD1E3
S113105038BDC046510F0000F10E000070B50E1CE3
S113106007280CD80830C000C0B2054B9847341C80
S11310700836044D2078A8470134B442FAD170BD33
S1131080510F0000F10E0000F8B58020134DA84761
S1131090FF20134CA047134F381C134EB047932026
S11310A0A847FF20A047D420A847FF20A047381C0A
S11310B0B047E720A847FF20A047C020A84700204A
S11310C0A047D320A8470020A0479420A847002089
S11310D0A047A720A8470020A047F8BD510F000053
S11310E0F10E0000B0270000250F000008B50E2007
S11310F0014B984708BDC046510F000008B50C20AD
S1131100014B984708BDC046510F000010B501209F
S1131110024CA0478020A04710BDC046510F0000DC
S113112008B51320024B9847024B984708BDC046A8
S1131130510F0000590E000008B51720024B9847C4
S1131140024B984708BDC046510F0000590E0000DD
S1131150F8B5142000212A4CA0472A4D80235B03B4
S11311602B6010200021A04711200021A04712204D
S11311700021A04713200021A0470A200021A047F6
S113118015200021A047204B10221A7011225A70FA
S113119012229A701322DA708023DB002B608023E2
S11311A09B032B606420194EB0470820184DA847B4
S11311B0184CA0470320184FB8476420B0470320B9
S11311C0B8476420B0470320B8476420B0470220E2
S11311D0B8476420B0472820A847A0470820A8475C
S11311E0A0470620A847A0470E20A847A0470120F3
S11311F0A847A0478020A847A047084B9847F8BDB8
S1131200A518000014440041C80000207912000011
S1131210510F0000590E0000010E000039110000AA
S113122082B000230193019B012B07DCC046C0461A
S1131230019B01330193019B012BF7DD02B0704741
S113124010B582B00190019B002B07D0044CA0473D
S1131250019B013B0193019B002BF8D102B010BD0F
S11312602112000008B50248024B984708BDC04649
S11312701A0400004112000010B582B00190019BD5
S1131280002B07D0044CA047019B013B0193019B19
S1131290002BF8D102B010BD6512000070B582B009
S11312A06B46D88006331B889BB2002B0ED0FA26DF
S11312B0B600074D6C460634301CA8472388013B12
S11312C09BB2238023889BB2002BF5D102B070BD62
S11312D079120000F8B58500281880000D18002444
S11312E0064F074E0134E4B2201C0121B847281CE4
S11312F0B0471435042CF5D1F8BDC046810F000069
S1131300250F000070B5061C012014210C4DA847C0
S113131020200C4CA04702201421A8472020A047DD
S113132003201421A8472020A04704201421A84703
S11313302020A047301C1421A8477F20A04770BD5F
S1131340810F0000F10E0000F0B55F4656464D4691
S11313504446F0B483B08046894600203D4B98470C
S113136001203D4B98473D4B984700270125012616
S1131370042252429246C2445346DBB29B46DAB23E
S11313800192374CA0470028FCD0364B9847364B87
S11313901B78002B21D0013EF3B2013DEDB2424651
S11313A0D6B25AB2002A04DD71B201268A4200DCA8
S11313B01E1C6BB2002B41DC002F06D1019F584646
S11313C04946244B9847042538E0013FFFB2F8B260
S11313D04946204B9847012530E0244B1B78002BCD
S11313E022D0731CDBB20135EDB24246D6B25AB2FA
S11313F0002A04DD71B201268A4200DC1E1C6BB295
S1131400042B1BDD7BB2534506D100204946114B0A
S113141098470027012511E00137FFB2F8B2494689
S11314200C4B9847042509E0114B1B78002B01D085
S1131430F0B208E00F4B1B78002B03D1E8B2064B47
S113144098479EE7002003B03CBC90469946A246CC
S1131450AB46F0BDD5120000051300005118000082
S11314603516000071160000050100203801002027
S113147004010020CC00002070B504AC257805AC34
S1131480267806AC2478022808D003280BD001283B
S11314900ED1081C111C094B98470DE0181C291C7F
S11314A0064B984708E0301C211C044B984703E086
S11314B002200349034B984770BDC046810F0000CA
S11314C0F427000005100000F0B55F4656464D466F
S11314D04446F0B487B0041C894690461F1C10ABE8
S11314E01B789B4611AB1E7812AB1B789A46304B87
S11314F09847734273410322D21A0592E5B25846C3
S11315000090019651460291201C494642463B1CDC
S1131510284CA047284B9847284C3B1C4746321C74
S11315204846049091469846049EA0470028FCD063
S11315300496234EB047234E3378002B07D0013551
S1131540EDB2059E73B26AB293421ADB1CE01E4BE5
S11315501B78002B05D0013DEDB26BB2002B13DCE0
S113156011E01A4B1B78002B03D0194B9847E8B2B3
S113157017E0184B1B78002B06D0154B984700201A
S11315800FE0012500E0059DE8B2594600914A4666
S113159001925346029304993A1C4346054EB047C0
S11315A0C2E707B03CBC90469946A246AB46F0BDA4
S11315B0ED100000791400005118000035160000E9
S11315C07116000094000020EC00002004010020AB
S11315D0FD100000CC00002010B52D200321074C85
S11315E0A0472E200321A0472A200021A0472B201A
S11315F00021A0472C200021A04710BDA518000001
S11316000023064A1370064A1370064A1370064AEA
S11316101370064A1370064A13707047CC000020FA
S1131620EC00002005010020380100209400002077
S11316300401002008B50C4B8022D2001A608022DD
S113164012011A60802252011A602D20074B98471C
S1131650031C0120002B05D02E20044B98470123A6
S11316605840C0B208BDC04694440041DD19000092
S1131670F0B557464E464546E0B42F4B98470028F0
S113168052D014202D4B98472B4B9847002848D014
S11316902B4F8023DB009A463B602A4E80231B019C
S11316A09946336080235B01984633602D20264D94
S11316B0A84701246040C0B2244B18702E20A847CC
S11316C06040C0B2224B1870534633604B463B60B7
S11316D0434633602D20A8476040C0B21D4B1870AC
S11316E02E20A8476040C0B21B4B1870534633608D
S11316F04B46336043463B602D20A8476040C0B250
S1131700164B18702E20A8474440E0B2144B1870B2
S1131710094C0A4D01E00120A847A0470028FAD14E
S113172004E0104B984701E00E4B98471CBC9046D0
S11317309946A246F0BDC046351600007912000055
S11317409444004198440041DD190000CC0000207D
S1131750EC00002005010020380100209400002046
S11317600401002001160000F0B557464E464546D8
S1131770E0B42B4B984700284AD01420294B9847B3
S1131780274B9847002840D0274F8023DB009A46F8
S11317903B60264E80231B019946336080235B0106
S11317A0984633602D20224DA84701246040C0B2E2
S11317B0204B18702E20A8476040C0B21E4B1870F2
S11317C0534633604B463B60434633602D20A84765
S11317D06040C0B2194B18702E20A8476040C0B2B8
S11317E0174B1870534633604B46336043463B6097
S11317F02D20A8476040C0B2124B18702E20A84775
S11318004440E0B2104B187004E0104B984701E0DC
S11318100E4B98471CBC90469946A246F0BDC04664
S113182035160000791200009444004198440041A8
S1131830DD190000CC000020EC0000200501002090
S1131840380100209400002004010020011600004B
S113185010B51420044B9847044CA0470028FCD131
S11318601420014B984710BD791200003516000072
S113187010B51420044B9847044CA0470028FCD012
S11318801420014B984710BD791200003516000052
S113189008B5024B9847024B984708BD71180000E1
S11318A05118000010B500290ED14309DB01394954
S11318B05A181F210840012181401160364A8018BE
S11318C0C31800221A7063E0012910D14309DB0117
S11318D032495A181F2108400121814011602E4AC3
S11318E08018C018027804231343037050E00229BF
S11318F010D14309DB0129495A181F21084001214D
S113190081401160244A8018C018027802231343CE
S113191003703DE0052910D14309DB011D495A1824
S11319201F2108400121814011601B4A8018C01802
S113193002780223134303702AE0032913D14309D5
S1131940DB01164A99181F221040012282400A60C6
S113195011494018C0180478062121430170104928
S11319605B181A6014E0042912D14309DB010B4A05
S113197099181F221040012282400A60064940182B
S1131980C018047806212143017006495B181A60C7
S113199010BDC04608440041404400410444004195
S11319A01844004114440041002909D04309DB01D3
S11319B0084A9B181F221040012282401A6008E046
S11319C04309DB01044A9B181F2210400122824074
S11319D01A60704718440041144400414309DB0174
S11319E0064A9B181B681F22104001228240101CCB
S11319F01840431E9841C0B27047C046204400417D
S1131A000C4B1B68002B10D1EFF31083002B09D172
S1131A1072B6BFF35F8F0022074B1A700122074B87
S1131A201A7002E00022054B1A70024B1A68013248
S1131A301A60704754000020000000205800002065
S1131A40084B1A68013A1A601B68002B09D1064B2F
S1131A501B78002B05D00122044B1A70BFF35F8F53
S1131A6062B6704754000020580000200000002097
S1131A70F0B583B001AC012565700027A77025700F
S1131A803E20211C064EB0478022D205054B9A61A8
S1131A90277065700F20211CB04703B0F0BDC0460D
S1131AA0A91A00008044004100B583B001AB802234
S1131AB01A700A785A704A789A708A78DA70191CFF
S1131AC0014B984703B000BDE121000008B5082888
S1131AD034D880001B4B1B589F468020000230E006
S1131AE0194B18692DE0194B186A8005800F184BA3
S1131AF0C340181C25E0144B586922E0124B1B68A4
S1131B00022018401DD011491022CB681A42FCD083
S1131B100D4B1B685A0713D500200E4B98470A4BF0
S1131B209B681B041B0C58430BE05023074AD35CEF
S1131B3000205A0705D5044BD86802E0002000E0D5
S1131B40054808BD082800005C000020000800408B
S1131B5000127A0021210000006CDC0270B50C4BED
S1131B601C6A017885784078012210408001402663
S1131B70B44304432A40D00180229443221C0243EC
S1131B80032001400902034802400A431A6270BD5F
S1131B9000080040FFFCFFFFF0B55F4656464D4687
S1131BA04446F0B4254A948A457803785942594109
S1131BB08A4683789C46C178884603799946467B51
S1131BC0077B817B8B4680681D4B586101235146FE
S1131BD0880004218C43044348461840C00008216F
S1131BE08C43044340461840000110218C430443B5
S1131BF060461840400120218C430443181C38409F
S1131C0080014027BC430443181C3040C001802697
S1131C10B44304430720284000020A4D2C400443E7
S1131C2059460B4019030848231C03400B43938275
S1131C303CBC90469946A246AB46F0BD0008004025
S1131C405C000020FFF8FFFFFFEFFFFF10B5027AF2
S1131C509206120C43899B059B0D1A43154B5A603F
S1131C60818842881143C479827922430A434178A6
S1131C70C9010A431A600378042B0FD1027B920630
S1131C80038A1A43C3891B040B490B401A43094BAB
S1131C909A60196804220A431A6009E0202B07D1CC
S1131CA0028A044B9A6019688422D2000A431A609B
S1131CB010BDC0465C0000200000FF03082843D884
S1131CC08000224B1B589F4600203EE0204B196A9F
S1131CD002220A431A62002037E01D4B996902224E
S1131CE00A439A61002030E0194B198A02220A4300
S1131CF01A82002029E0164B998A02220A439A820A
S1131D00002022E0134B196802220A431A601A6861
S1131D10114B1A400E4B9A84191C1022CB681A429C
S1131D20FCD00C4A91680A4BD962516899621268D6
S1131D3092B29A84002008E0054A4423D05C022130
S1131D400143D154002000E0172070472C280000E4
S1131D50000800405C0000207FFF0000F0B58FB059
S1131D60C222D2004B4B9A604B4B5A681E218A43C5
S1131D7004210A435A60022201AB1A700024474D21
S1131D80E0B201A9A8470134252CF9D10AA80023FF
S1131D900370042242708370802212028260C37036
S1131DA0012202710373837343736A46D3843C4BE9
S1131DB0984705203B4B9847364802216B4626330B
S1131DC0394C0BE01A88013292B21A801A8892B206
S1131DD0A24203D90122354B1A7002E0C2681142B3
S1131DE0F0D02C4B998A80220A439A8205A80023BA
S1131DF00025438083808571C571072202723F23C9
S1131E004381042101704570294901820273C38111
S1131E10284B984704A84570012686700570264B08
S1131E20984706201F4FB847244B984701AC0296A9
S1131E30657025726572052323700120211C204BD7
S1131E40984701201F4B984726700020211C134BF4
S1131E50984700201C4B98470720B8470D49D022CB
S1131E60CB681340D02BFBD1184A00231372537252
S1131E70937201A901224A604B700B724B720723C3
S1131E800B7000200E4B984700200E4B98470FB064
S1131E90F0BDC0460008004000400041052100009C
S1131EA0991B0000BD1C000060EA000074000020C3
S1131EB0B90500004D1C00005D1B0000D11E000090
S1131EC0F51E0000A91F0000792000000004004056
S1131ED0064B996908220A439A610122044B1A703D
S1131EE0191C0B781342FCD17047C0460004004013
S1131EF0000C0040F8B5061C071C0D782D020543A4
S1131F004B78002B02D08023DB021D434B7A002B3D
S1131F1002D080231B031D434C68012C17D9631E78
S1131F201C420FD1022C06D90223002201325B008D
S1131F309C42FBD800E000221702374380235B0356
S1131F401D4304E02702374380239B021D430B7A81
S1131F50002B02D080239B031D430F4A53785BB2AE
S1131F60002BFBDB0D4B98470D4B1E700A4A537830
S1131F705BB2002BFBDB084B9F601A1C53785BB2EF
S1131F80002BFBDB044B5968802252020A401543A4
S1131F905D60044B9847F8BD000C0040011A000036
S1131FA0080C0040411A000010B5041C0B4A537879
S1131FB05BB2002BFBDB0A4B98470A4B1C70074AA9
S1131FC053785BB2002BFBDB044B5968802252022E
S1131FD00A435A60044B984710BDC046000C0040A9
S1131FE0011A0000040C0040411A000070B5041CE2
S1131FF01A4A53785BB2002BFBDB194B9847194BF9
S11320001C70164A53785BB2002BFBDB134E7068CE
S1132010C004C00E144B9847051C124B1C70766804
S1132020F602F60F114B1C700C4A53785BB2002B6E
S1132030FBDB0A4B9C68240AA4B20D4B9847002E84
S113204007D1012C07D9281C211C0A4B9847051CD1
S113205001E00134E540281C70BDC046000C00407E
S1132060011A0000040C0040CD1A0000080C0040C6
S1132070411A0000B124000010B5041C064B984717
S1132080064B1C70064B59888022D2010A435A80A1
S1132090044B984710BDC046011A0000020C0040D2
S11320A0000C0040411A000010B5041C0F4B984767
S11320B00F4B1C700F4B58880005000F59880E4AAF
S11320C00A405A8059880D4A0A405A80191C8022B5
S11320D0D2014B881342FCD1064B01025888064AB0
S11320E002400A435A80064B984710BD011A00006B
S11320F0020C0040000C0040FFF0FFFFFFBFFFFF99
S1132100411A000010B50C7824020443024B98478E
S1132110A4B2024B5C8010BDA9200000000C00405A
S113212010B5041C064B9847064B1C70064B5C8884
S11321302405240F054B9847201C054B984710BDD8
S1132140011A0000020C0040000C0040411A00007B
S1132150ED1F000030B5D378002B1ED11378802BEF
S113216004D01B0680246402234300E00023547837
S11321700225AC430AD19478002C03D18024A40214
S1132180234302E0C024E402234341605478013C29
S1132190012C04D8114C234001E0416000230D04BC
S11321A02D0CA024E4052C431C4384620D0CD02484
S11321B024062C431C438462D478002C0CD15C0389
S11321C005D59378012B01D1816100E041615378F9
S11321D0013B012B00D8816030BDC046FFFFFBFFEF
S11321E008B5031C0A1CC1090020002903D15809A1
S11321F0C001044940181F210B4001219940024BA2
S1132200984708BD00440041552100007047C0466E
S113221008B5044B9847044B9847044B9847044B24
S1132220984708BD5D1D0000711A00000D220000D2
S11322300D220000FEE7C04670B5022190235B002A
S1132240284AD150284BD8780321884302221043CE
S1132250D870DD780C24A54308200543DD70234B9A
S11322609E7B3025AE43202535439D739D7BA5433E
S113227028439873987B884302439A731C4B1D4AE6
S11322809A4203D01C4B1A4A9A4204D31B4B1C4A51
S11322909A4210D31BE01B4B17480330C01A800826
S11322A00130800000231249124AD458CC50043320
S11322B08342FAD1EAE7124B1A1D10490331891AF5
S11322C0890889005218002102C39342FCD10E4BA5
S11322D07F210E4A8A439A600D4B98470D4B9847CD
S11322E0FEE7C04600700041005000410048004134
S11322F0000000205C2900001C0000205C0100207C
S11323001C0000200400002000ED00E0000000009C
S113231051250000DD23000010B5074B9847074BFB
S1132320984700200649074CA04701200649A047CA
S113233002200649A04710BD51110000FD10000005
S1132340040000205D1000000C0000201400002098
S113235070B5164B9847164B984701200921154C28
S1132360A0471548154DA84701200A21A047012080
S1132370134B984702200221A0471248A847032084
S11323800221A0471048A847104B98470120104E3F
S1132390B04702200221A0470E48A847032002218B
S11323A0A0470D48A8470120B04770BD2111000087
S11323B089100000810F000050280000250F000044
S11323C0F10E0000542800006828000039110000B4
S11323D09D1200007C2800009028000070B586B093
S11323E0254B9847254B9847254B9847254B9847AD
S11323F0254B9847254B9847254B98470320142194
S1132400244CA0477F20244B984701200121A0475A
S11324106D460026EE7501200221A0471F4B984708
S1132420E87DC0B21E4B984701221E4B1A830A2432
S11324300094802000020221032201231A4DA847A0
S1132440049004980094022103220323174CA0470C
S11324506B46DE730B229A7349225A7303AA232410
S11324601470DC7B9D7B587B11782A1982188A189A
S1132470D2B2DA73FEE7C04611220000D91500007B
S113248019230000C5050000C50400005123000005
S11324900D110000810F0000F10E0000ED1000008E
S11324A0410F00009800002031080000D906000008
S11324B0002934D00123002210B488422CD30124F3
S11324C02407A14204D2814202D209011B01F8E788
S11324D0E400A14204D2814202D249005B00F8E741
S11324E0884201D3401A1A434C08A04202D3001B6D
S11324F05C0822438C08A04202D3001B9C082243A0
S1132500CC08A04202D3001BDC082243002803D0DD
S11325101B0901D00909E3E7101C10BC704700280F
S113252001D00020C04307B4024802A14018029021
S113253003BDC046190000000029F0D003B5FFF721
S1132540B9FF0EBC4243891A1847C0467047C046BB
S113255070B50E4B0E4D0024ED1AAD101E1CAC428E
S113256004D0A300F35898470134F8E700F0E6F9E3
S1132570084B094D0024ED1AAD101E1CAC4204D0CA
S1132580A300F35898470134F8E770BD48290000C8
S113259048290000482900004C290000312E4162DE
S11325A0736F6C7574652050726573737572650012
S11325B0322E50617274692E204F7269662E445017
S11325C020202000332E476173656F7573204F728E
S11325D069662E4450202000342E5069746F742094
S11325E0445020202020202020202000352E537409
S11325F061636B20546865726D6F437570202000B1
S1132600362E416D6269656E742054656D702E209E
S113261020202000372E4D657465722054656D703E
S11326202E20202020202000382E417578696C6CE3
S11326306172792054656D702E202000392E50610E
S113264072746963756C61746520466C6F772000E1
S113265031302E476173656F757320466C6F772038
S113266020202000202043616C6962726174696FCC
S11326706E206F663A202020000000002041627323
S11326806F6C757465205072657373757265202064
S1132690000000005363616E202F2045646974209C
S11326A02F457865637574650000000020202020A4
S11326B02020202020202020202020202020202016
S11326C0000000005363616E204D6F64653A204141
S11326D062732E507265732E0000000043616C69B2
S11326E062726174696F6E28696E206D6D48672926
S11326F0000000004C6F7765723A202020202020D3
S1132700205374643A202020000000005570706546
S1132710723A202020202020205374643A20202064
S1132720000000004F4E4C494E45204E4F54204966
S11327304D504C454D454E5400000000496E7661A5
S11327406C69642043616C204F7074696F6E000083
S1132750202043616C6962726174696F6E204D6FF1
S11327606465202000000000202020456E746572FE
S11327702050617373776F72642020200000000082
S113278020202057726F6E672050617373776F72C9
S1132790642121200000000000080042000C0042D7
S11327A0001000420014004200180042001C0042C5
S11327B03D3D3D3D3D3D3D3D3D3D3D3D3D3D3D3D45
S11327C03D3D00002D2D2D2D2D2D2D2D2D2D2D2D6F
S11327D02D2D2D2D2D2D2D2D000000005F5F5F5F11
S11327E05F5F5F5F5F5F5F5F5F5F5F5F5F5F5F5FF5
S11327F0000000004275673A204C43445F486F7202
S1132800697A437572000000E01A00003C1B000066
S11328103C1B0000DA1A0000DA1A0000F61A000065
S1132820E61A0000FC1A00002A1B0000E81C000045
S1132830481D0000481D0000C81C0000DA1C0000F0
S1132840F61C0000CC1C0000041D0000381D000014
S1132850202020002020202020506F6C6C746563A1
S1132860682020202020000020202020496E73743E
S113287072756D656E74732020200000537461635B
S11328806B4D6F6E69746F72696E674B697400008B
S1132890204D6F64656C2050454D2D534D4B2032B7
S11328A03020000020526561647920666F722041F7
S11328B075746F2D5A65726F00000000284B6565B2
S11328C070205069746F62204173732E204F7574A9
S11328D000000000262053616D706C696E67205003
S11328E0756D70204F66662900000000202050722C
S11328F065737320456E746572204B6579202020C2
S1132900000000002020446F696E67204175746FD9
S11329102D5A65726F202020000000002D2D2D2DD2
S11329202D2D00002020204175746F2D5A65726F83
S113293020646F6E6520202000000000F8B5C046BA
S1132940F8BC08BC9E467047D9000000F8B5C046E4
S10F2950F8BC08BC9E467047B1000000B3
S113295C010000000A0A0A0A0A0A0A0A1818001FC7
S10F296C191F18180C12120C00000000B7
S9032239A1
