S0190000534D4B323020544553542053414D4432312E73726563B6
S113000080200020F5100000F1100000F110000025
S113001000000000000000000000000000000000DC
S1130020000000000000000000000000F1100000CB
S11300300000000000000000F1100000F1100000BA
S1130040F1100000F1100000F1100000F1100000A8
S1130050F1100000F1100000F1100000F110000098
S1130060F110000011010000210100003101000025
S1130070410100005101000061010000F110000085
S1130080F1100000F1100000F1100000F110000068
S1130090F1100000F1100000F1100000F110000058
S11300A0F1100000F1100000F1100000F110000048
S11300B010B5064C2378002B07D1054B002B02D03A
S11300C0044800E000BF0123237010BD1C00002081
S11300D0000000002C14000008B5084B002B03D0CE
S11300E00748084900E000BF07480368002B03D015
S11300F0064B002B00D0984708BDC0460000000006
S11301002C140000200000202C140000000000002B
S113011008B5024B1B680020984708BD3800002032
S113012008B5024B5B680120984708BD38000020E1
S113013008B5024B9B680220984708BD3800002090
S113014008B5024BDB680320984708BD380000203F
S113015008B5024B1B690420984708BD38000020ED
S113016008B5024B5B690520984708BD380000209C
S113017010B580246403044B1C600220034B984791
S1130180034B1C6010BDC04618440041A10400008C
S113019014440041F8B54F464646C0B48146002495
S11301A00D4B98460D4F0E4E4346E5182878002116
S11301B0B84728784B46234101211940B047013400
S11301C0042CF1D10220074B9847074B98470CBCED
S11301D090469946F8BDC0467400002041080000CE
S11301E045090000A104000071010000F0B54F466C
S11301F04646C0B483B06C460123E3711320022148
S11302001B4B98478022D2001A4B1A60802292031B
S1130210194B1A60E379002B1AD0164A90468024B1
S11302206403A1464B46424613600220134FB8476D
S1130230114E3460124B1B681B03DB0F6D46EB71D0
S113024043461C600220B8473460EB79002BE9D1A7
S1130250084B802252031A60802292031A601320F2
S11302600021034B984703B00CBC90469946F0BD5F
S1130270410800001444004118440041A104000056
S11302802044004138B5051C8022D200064B1A6078
S113029080229203054B1A600009054CA047281CD4
S11302A0A047044B984738BD18440041144400410A
S11302B095010000ED01000038B5041C0078002809
S11302C005D0034D0134A84720780028FAD138BD61
S11302D08502000008B53030C0B2014B984708BD14
S11302E08502000038B5051C074B8022D2001A6035
S11302F0802292031A600009044CA047281CA047DE
S1130300034B984738BDC046144400419501000092
S1130310ED01000008B502280DD002D8012805D04F
S113032017E003280CD004280FD012E07F31C8B2A4
S1130330084B98470DE04139C8B2064B984708E08E
S11303406D39C8B2034B984703E02D39C8B2014B4D
S1130350984708BDE502000070B50E1C07280CD8AC
S11303600830C000C0B2054B9847341C0836044D11
S11303702078A8470134B442FAD170BDE5020000E8
S11303808502000008B50C20014B984708BDC04603
S1130390E502000008B50120014B984708BDC0469E
S11303A0E502000008B51720024B9847024B984716
S11303B008BDC046E5020000ED01000038B510207C
S11303C00021274CA04711200021A0471220002122
S11303D0A04713200021A0470A200021A047152090
S11303E00021A04714200021A0471E4B10221A70A0
S11303F011225A7012229A701322DA701A4B802238
S1130400D2001A60802292031A606420174CA0471D
S11304100320174DA8472820A0470320A8472820D9
S1130420A0470320A8471E20A0470220A847322047
S1130430A04728200F4DA8470F4CA0470820A847E5
S1130440A0470620A847A0470E20A847A0470120A0
S1130450A847A0478020A847A047084B984738BD25
S1130460410800007400002014440041D904000035
S113047095010000E5020000ED010000A503000065
S113048082B000230193019B012B07DCC046C046C8
S1130490019B01330193019B012BF7DD02B07047EF
S11304A010B582B00190019B002B07D0044CA047EB
S11304B0019B013B0193019B002BF8D102B010BDBD
S11304C08104000008B50248024B984708BDC046A5
S11304D01A040000A104000010B582B00190019B31
S11304E0002B07D0044CA047019B013B0193019BC7
S11304F0002BF8D102B010BDC5040000F8B585008A
S1130500281880000D180024064F074E0134E4B269
S1130510201C0121B847281CB0471435042CF5D100
S1130520F8BDC04615030000B902000070B5061CF2
S1130530012014210C4DA84720200C4CA047022078
S11305401421A8472020A04703201421A8472020D5
S1130550A04704201421A8472020A047301C1421C0
S1130560A8477F20A04770BD150300008502000046
S1130570F0B55F4656464D464446F0B483B08046D7
S1130580894600203C4B984701203C4B9847002764
S113059001250126042252429246C2445346DBB24C
S11305A09B46DAB20192364CA0470028FCD0354B6A
S11305B09847354B1B78002B21D0013EF3B2013D07
S11305C0EDB24246D6B25AB2002A04DD71B2012617
S11305D08A4200DC1E1C6BB2002B41DC002F06D1CA
S11305E0019F58464946244B9847042538E0013F6B
S11305F0FFB2F8B24946204B9847012530E0234B1F
S11306001B78002B22D0731CDBB20135EDB24246BD
S1130610D6B25AB2002A04DD71B201268A4200DC45
S11306201E1C6BB2042B1BDD7BB2534506D100208C
S11306304946114B98470027012511E00137FFB2C5
S1130640F8B249460C4B9847042509E0104B1B7837
S1130650002B01D0F0B208E00E4B1B78002B03D125
S1130660E8B2064B98479EE7002003B03CBC904696
S11306709946A246AB46F0BDFD0400002D050000DE
S1130680F5060000310700007C0000207D000020FA
S11306907B0000207900002010B52D200321074C99
S11306A0A0472E200321A0472A200021A0472B2069
S11306B00021A0472C200021A04710BD41080000C4
S11306C00023064A1370064A1370064A1370064A3A
S11306D01370064A1370064A13707047790000209D
S11306E07A0000207C0000207D000020780000209B
S11306F07B00002008B50C4B8022D2001A608022B7
S113070012011A60802252011A602D20074B98476B
S1130710031C0120002B05D02E20044B98470123F5
S11307205840C0B208BDC046944400417909000055
S1130730F0B557464E464546E0B42F4B984700283F
S113074052D014202D4B98472B4B9847002848D063
S11307502B4F8023DB009A463B602A4E80231B01EB
S11307609946336080235B01984633602D20264DE3
S1130770A84701246040C0B2244B18702E20A8471B
S11307806040C0B2224B1870534633604B463B6006
S1130790434633602D20A8476040C0B21D4B1870FB
S11307A02E20A8476040C0B21B4B187053463360DC
S11307B04B46336043463B602D20A8476040C0B29F
S11307C0164B18702E20A8474440E0B2144B187002
S11307D0094C0A4D01E00120A847A0470028FAD19E
S11307E004E0104B984701E00E4B98471CBC904620
S11307F09946A246F0BDC046F5060000D9040000A3
S11308009444004198440041790900007900002093
S11308107A0000207C0000207D0000207800002069
S11308207B000020C10600008023DB011943030282
S1130830081C1843014B18807047C046020C004046
S113084010B500290ED14309DB0139495A181F217B
S11308500840012181401160364A8018C3180022E3
S11308601A7063E0012910D14309DB0132495A1897
S11308701F2108400121814011602E4A8018C018B0
S1130880027804231343037050E0022910D1430972
S1130890DB0129495A181F210840012181401160B8
S11308A0244A8018C01802780223134303703DE0E1
S11308B0052910D14309DB011D495A181F2108409D
S11308C00121814011601B4A8018C018027802235C
S11308D0134303702AE0032913D14309DB01164AA9
S11308E099181F221040012282400A6011494018C1
S11308F0C018047806212143017010495B181A605E
S113090014E0042912D14309DB010B4A99181F2270
S11309101040012282400A6006494018C018047839
S113092006212143017006495B181A6010BDC046B8
S1130930084400414044004104440041184400413B
S113094014440041002909D04309DB01084A9B18DB
S11309501F221040012282401A6008E04309DB0193
S1130960044A9B181F221040012282401A607047DB
S113097018440041144400414309DB01064A9B1812
S11309801B681F22104001228240101C1840431E85
S11309909841C0B27047C0462044004130B50A298E
S11309A00BD11F230340174A9B184009C001181894
S11309B0037801229343037023E04209D2011F23E9
S11309C00340104D5C19A41801252570C4070BD4ED
S11309D05B080D4D5B199A1813780F20834313702D
S11309E01378194311700CE05B0807481B189B1817
S11309F018780F2202401A701A7809011143C9B2FB
S1130A00197030BD40440041304400410C4B1B6818
S1130A10002B10D1EFF31083002B09D172B6BFF372
S1130A205F8F0022074B1A700122074B1A7002E0F5
S1130A300022054B1A70024B1A6801321A60704783
S1130A40500000200000002054000020084B1A68C9
S1130A50013A1A601B68002B09D1064B1B78002B46
S1130A6005D00122044B1A70BFF35F8F62B6704742
S1130A70500000205400002000000020F0B583B096
S1130A8001AC012565700027A77025703E20211C4C
S1130A90064EB0478022D205054B9A6127706570D7
S1130AA00F20211CB04703B0F0BDC046B50A0000BA
S1130AB08044004100B583B001AB80221A700A78EB
S1130AC05A704A789A708A78DA70191C014B9847E0
S1130AD003B000BD9D10000070B50C4B1C6A01787A
S1130AE0857840780122104080014026B4430443B5
S1130AF02A40D00180229443221C02430320014057
S1130B000902034802400A431A6270BD000800400B
S1130B10FFFCFFFFF0B55F4656464D464446F0B431
S1130B20254A948A45780378594259418A468378FC
S1130B309C46C178884603799946467B077B817B2E
S1130B408B4680681D4B586101235146880004215F
S1130B508C43044348461840C00008218C43044396
S1130B6040461840000110218C430443604618405D
S1130B70400120218C430443181C38408001402745
S1130B80BC430443181C3040C0018026B4430443D2
S1130B900720284000020A4D2C40044359460B40CC
S1130BA019030848231C03400B4393823CBC904622
S1130BB09946A246AB46F0BD00080040580000200C
S1130BC0FFF8FFFFFFEFFFFF10B5027A9206120C49
S1130BD043899B059B0D1A43154B5A6081884288B3
S1130BE01143C479827922430A434178C9010A43F3
S1130BF01A600378042B0FD1027B9206038A1A43EE
S1130C00C3891B040B490B401A43094B9A601968AA
S1130C1004220A431A6009E0202B07D1028A044BFC
S1130C209A6019688422D2000A431A6010BDC04633
S1130C30580000200000FF03082843D88000224BFE
S1130C401B589F4600203EE0204B196A02220A43AB
S1130C501A62002037E01D4B996902220A439A6107
S1130C60002030E0194B198A02220A431A8200201C
S1130C7029E0164B998A02220A439A82002022E034
S1130C80134B196802220A431A601A68114B1A405E
S1130C900E4B9A84191C1022CB681A42FCD00C4AC1
S1130CA091680A4BD96251689962126892B29A8427
S1130CB0002008E0054A4423D05C02210143D154BA
S1130CC0002000E0172070472013000000080040B7
S1130CD0580000207FFF0000F0B58FB0C222D20080
S1130CE04B4B9A604B4B5A681E218A4304210A439A
S1130CF05A60022201AB1A700024474DE0B201A9E8
S1130D00A8470134252CF9D10AA800230370042232
S1130D1042708370802212028260C37001220271C9
S1130D200373837343736A46D3843C4B984705200B
S1130D303B4B9847364802216B462633394C0BE02F
S1130D401A88013292B21A801A8892B2A24203D946
S1130D500122354B1A7002E0C2681142F0D02C4BCC
S1130D60998A80220A439A8205A800230025438099
S1130D7083808571C571072202723F234381042158
S1130D8001704570294901820273C381284B984739
S1130D9004A84570012686700570264B98470620E6
S1130DA01F4FB847244B984701AC029665702572D3
S1130DB06572052323700120211C204B98470120D4
S1130DC01F4B984726700020211C134B9847002086
S1130DD01C4B98470720B8470D49D022CB681340D5
S1130DE0D02BFBD1184A002313725372937201A9BA
S1130DF001224A604B700B724B7207230B70002068
S1130E000E4B984700200E4B98470FB0F0BDC046DC
S1130E100008004000400041F50F0000150B0000E1
S1130E20390C000060EA000070000020B9050000E1
S1130E30C90B0000D90A00004D0E0000710E00001D
S1130E40250F0000690F000000040040064B99695B
S1130E5008220A439A610122044B1A70191C0B7868
S1130E601342FCD17047C04600040040000C00400F
S1130E70F8B5061C071C0D782D0205434B78002B92
S1130E8002D08023DB021D434B7A002B02D0802347
S1130E901B031D434C68012C17D9631E1C420FD140
S1130EA0022C06D90223002201325B009C42FBD8AB
S1130EB000E000221702374380235B031D4304E054
S1130EC02702374380239B021D430B7A002B02D059
S1130ED080239B031D430F4A53785BB2002BFBDB3B
S1130EE00D4B98470D4B1E700A4A53785BB2002B8A
S1130EF0FBDB084B9F601A1C53785BB2002BFBDBB7
S1130F00044B5968802252020A4015435D60044B29
S1130F109847F8BD000C00400D0A0000080C004082
S1130F204D0A000010B5041C0B4A53785BB2002B29
S1130F30FBDB0A4B98470A4B1C70074A53785BB299
S1130F40002BFBDB044B5968802252020A435A608F
S1130F50044B984710BDC046000C00400D0A000029
S1130F60040C00404D0A000010B5041C064B9847C1
S1130F70064B1C70064B59888022D2010A435A80C2
S1130F80044B984710BDC0460D0A0000020C0040F7
S1130F90000C00404D0A000010B5041C0F4B98478C
S1130FA00F4B1C700F4B58880005000F59880E4AD0
S1130FB00A405A8059880D4A0A405A80191C8022D6
S1130FC0D2014B881342FCD1064B01025888064AD1
S1130FD002400A435A80064B984710BD0D0A000090
S1130FE0020C0040000C0040FFF0FFFFFFBFFFFFBA
S1130FF04D0A000010B50C7824020443024B9847B4
S1131000A4B2024B5C8010BD990F0000000C00409C
S113101030B5D378002B1ED11378802B04D01B0657
S113102080246402234300E0002354780225AC4367
S11310300AD19478002C03D18024A402234302E033
S1131040C024E402234341605478013C012C04D8B9
S1131050114C234001E0416000230D042D0CA02419
S1131060E4052C431C4384620D0CD02424062C4339
S11310701C438462D478002C0CD15C0305D593788E
S1131080012B01D1816100E041615378013B012BC7
S113109000D8816030BDC046FFFFFBFF08B5031CCC
S11310A00A1CC1090020002903D15809C0010449C0
S11310B040181F210B4001219940024B984708BD5D
S11310C000440041111000007047C04608B5044BAD
S11310D09847044B9847044B9847044B984708BDDE
S11310E0D90C00007D0A0000C9100000C9100000DE
S11310F0FEE7C04670B5022190235B00284AD15018
S1131100284BD8780321884302221043D870DD7815
S11311100C24A54308200543DD70234B9E7B30251A
S1131120AE43202535439D739D7BA5432843987387
S1131130987B884302439A731C4B1D4A9A4203D0FE
S11311401C4B1A4A9A4204D31B4B1C4A9A4210D392
S11311501BE01B4B17480330C01A80080130800085
S113116000231249124AD458CC5004338342FAD192
S1131170EAE7124B1A1D10490331891A89088900BC
S11311805218002102C39342FCD10E4B7F210E4A18
S11311908A439A600D4B98470D4B9847FEE7C0462B
S11311A00070004100500041004800410000002050
S11311B02C1400001C000020800000201C000020D3
S11311C00400002000ED00E000000000D512000043
S11311D06912000010B50D4B1968802292010A4370
S11311E01A6000201C210A4B98470A4C01232380D3
S11311F04022094B1A702F200421084B9847084BB2
S113120023807F22074B1A7010BDC0462004004083
S11312102908000000340042053400429D09000002
S1131220460500001934004210B5084B9847084B96
S11312309847084B984700200749084CA0470120CD
S11312400749A04702200749A04710BDD511000057
S1131250BD030000850300000C00002059030000BA
S1131260040000201400002070B582B0104B984791
S1131270104B9847104B9847104EB0470320142149
S11312800F4CA0477F200F4B984701200121A04716
S11312900A200D490D4B98476D46E871B04701206F
S11312A00221A047E879C0B2094B9847FEE7C0463F
S11312B0CD100000990600002912000095030000DB
S11312C015030000850200004413000071050000AE
S11312D0D502000070B50E4B0E4D0024ED1AAD1072
S11312E01E1CAC4204D0A300F35898470134F8E71D
S11312F000F08CF8084B094D0024ED1AAD101E1CAB
S1131300AC4204D0A300F35898470134F8E770BD09
S11313101814000018140000181400001C14000015
S1131320640C0000C40C0000C40C0000440C000059
S1131330560C0000720C0000480C0000800C0000E9
S1131340B40C0000312E4162736F6C7574652050CB
S11313507265737375726500322E50617274692EF2
S1131360204F7269662E445020202000332E47619E
S113137073656F7573204F7269662E445020200088
S1131380342E5069746F7420445020202020202073
S113139020202000352E537461636B2D542F43207D
S11313A02020202020202000362E416D6269656EA9
S11313B0742054656D702E2020202000372E4D653A
S11313C07465722054656D702E202020202020002A
S11313D0382E417578696C6C6172792054656D7032
S11313E02E202000392E506172746963756C61740B
S11313F06520466C6F77200031302E476173656F2E
S1131400757320466C6F772020202000F8B5C04605
S1131410F8BC08BC9E467047D9000000F8B5C04629
S10F1420F8BC08BC9E467047B1000000F8
S113142C010000001818001F191F18180A0A0A0ACC
S10F143C0A0A0A0A0C12120C000000003C
S90310F5F7
